{
  "_format": "hh-sol-artifact-1",
  "contractName": "QuadraticVotingContract",
  "sourceName": "contracts/VotingContract.sol",
  "abi": [
    {
      "inputs": [
        {
          "internalType": "string[]",
          "name": "_candidateNames",
          "type": "string[]"
        }
      ],
      "stateMutability": "nonpayable",
      "type": "constructor"
    },
    {
      "inputs": [],
      "name": "INITIAL_CREDITS",
      "outputs": [
        {
          "internalType": "uint256",
          "name": "",
          "type": "uint256"
        }
      ],
      "stateMutability": "view",
      "type": "function"
    },
    {
      "inputs": [
        {
          "internalType": "uint256",
          "name": "",
          "type": "uint256"
        }
      ],
      "name": "candidates",
      "outputs": [
        {
          "internalType": "string",
          "name": "name",
          "type": "string"
        },
        {
          "internalType": "uint256",
          "name": "voteCount",
          "type": "uint256"
        }
      ],
      "stateMutability": "view",
      "type": "function"
    },
    {
      "inputs": [
        {
          "internalType": "uint256",
          "name": "_candidateIndex",
          "type": "uint256"
        },
        {
          "internalType": "uint256",
          "name": "_voteStrength",
          "type": "uint256"
        }
      ],
      "name": "castVote",
      "outputs": [],
      "stateMutability": "nonpayable",
      "type": "function"
    },
    {
      "inputs": [],
      "name": "endVoting",
      "outputs": [],
      "stateMutability": "nonpayable",
      "type": "function"
    },
    {
      "inputs": [],
      "name": "getRemainingCredits",
      "outputs": [
        {
          "internalType": "uint256",
          "name": "",
          "type": "uint256"
        }
      ],
      "stateMutability": "view",
      "type": "function"
    },
    {
      "inputs": [
        {
          "internalType": "uint256",
          "name": "_candidateIndex",
          "type": "uint256"
        }
      ],
      "name": "getVoteCount",
      "outputs": [
        {
          "internalType": "uint256",
          "name": "",
          "type": "uint256"
        }
      ],
      "stateMutability": "view",
      "type": "function"
    },
    {
      "inputs": [],
      "name": "getWinner",
      "outputs": [
        {
          "internalType": "string",
          "name": "winnerName",
          "type": "string"
        }
      ],
      "stateMutability": "view",
      "type": "function"
    },
    {
      "inputs": [],
      "name": "owner",
      "outputs": [
        {
          "internalType": "address",
          "name": "",
          "type": "address"
        }
      ],
      "stateMutability": "view",
      "type": "function"
    },
    {
      "inputs": [],
      "name": "registerVoter",
      "outputs": [],
      "stateMutability": "nonpayable",
      "type": "function"
    },
    {
      "inputs": [
        {
          "internalType": "address",
          "name": "",
          "type": "address"
        }
      ],
      "name": "voterCredits",
      "outputs": [
        {
          "internalType": "uint256",
          "name": "",
          "type": "uint256"
        }
      ],
      "stateMutability": "view",
      "type": "function"
    },
    {
      "inputs": [
        {
          "internalType": "address",
          "name": "",
          "type": "address"
        },
        {
          "internalType": "uint256",
          "name": "",
          "type": "uint256"
        }
      ],
      "name": "voterVotes",
      "outputs": [
        {
          "internalType": "uint256",
          "name": "",
          "type": "uint256"
        }
      ],
      "stateMutability": "view",
      "type": "function"
    },
    {
      "inputs": [],
      "name": "votingEnded",
      "outputs": [
        {
          "internalType": "bool",
          "name": "",
          "type": "bool"
        }
      ],
      "stateMutability": "view",
      "type": "function"
    }
  ],
  "bytecode": "0x60806040523480156200001157600080fd5b5060405162001937380380620019378339818101604052810190620000379190620003c7565b60005b8151811015620000d4576002604051806040016040528084848151811062000067576200006662000418565b5b60200260200101518152602001600081525090806001815401808255809150506001900390600052602060002090600202016000909190919091506000820151816000019081620000b9919062000692565b5060208201518160010155505080806001019150506200003a565b5033600360016101000a81548173ffffffffffffffffffffffffffffffffffffffff021916908373ffffffffffffffffffffffffffffffffffffffff1602179055506000600360006101000a81548160ff0219169083151502179055505062000779565b6000604051905090565b600080fd5b600080fd5b600080fd5b6000601f19601f8301169050919050565b7f4e487b7100000000000000000000000000000000000000000000000000000000600052604160045260246000fd5b6200019c8262000151565b810181811067ffffffffffffffff82111715620001be57620001bd62000162565b5b80604052505050565b6000620001d362000138565b9050620001e1828262000191565b919050565b600067ffffffffffffffff82111562000204576200020362000162565b5b602082029050602081019050919050565b600080fd5b600080fd5b600067ffffffffffffffff8211156200023d576200023c62000162565b5b620002488262000151565b9050602081019050919050565b60005b838110156200027557808201518184015260208101905062000258565b60008484015250505050565b60006200029862000292846200021f565b620001c7565b905082815260208101848484011115620002b757620002b66200021a565b5b620002c484828562000255565b509392505050565b600082601f830112620002e457620002e36200014c565b5b8151620002f684826020860162000281565b91505092915050565b6000620003166200031084620001e6565b620001c7565b905080838252602082019050602084028301858111156200033c576200033b62000215565b5b835b818110156200038a57805167ffffffffffffffff8111156200036557620003646200014c565b5b808601620003748982620002cc565b855260208501945050506020810190506200033e565b5050509392505050565b600082601f830112620003ac57620003ab6200014c565b5b8151620003be848260208601620002ff565b91505092915050565b600060208284031215620003e057620003df62000142565b5b600082015167ffffffffffffffff81111562000401576200040062000147565b5b6200040f8482850162000394565b91505092915050565b7f4e487b7100000000000000000000000000000000000000000000000000000000600052603260045260246000fd5b600081519050919050565b7f4e487b7100000000000000000000000000000000000000000000000000000000600052602260045260246000fd5b600060028204905060018216806200049a57607f821691505b602082108103620004b057620004af62000452565b5b50919050565b60008190508160005260206000209050919050565b60006020601f8301049050919050565b600082821b905092915050565b6000600883026200051a7fffffffffffffffffffffffffffffffffffffffffffffffffffffffffffffffff82620004db565b620005268683620004db565b95508019841693508086168417925050509392505050565b6000819050919050565b6000819050919050565b6000620005736200056d62000567846200053e565b62000548565b6200053e565b9050919050565b6000819050919050565b6200058f8362000552565b620005a76200059e826200057a565b848454620004e8565b825550505050565b600090565b620005be620005af565b620005cb81848462000584565b505050565b5b81811015620005f357620005e7600082620005b4565b600181019050620005d1565b5050565b601f82111562000642576200060c81620004b6565b6200061784620004cb565b8101602085101562000627578190505b6200063f6200063685620004cb565b830182620005d0565b50505b505050565b600082821c905092915050565b6000620006676000198460080262000647565b1980831691505092915050565b600062000682838362000654565b9150826002028217905092915050565b6200069d8262000447565b67ffffffffffffffff811115620006b957620006b862000162565b5b620006c5825462000481565b620006d2828285620005f7565b600060209050601f8311600181146200070a5760008415620006f5578287015190505b62000701858262000674565b86555062000771565b601f1984166200071a86620004b6565b60005b8281101562000744578489015182556001820191506020850194506020810190506200071d565b8683101562000764578489015162000760601f89168262000654565b8355505b6001600288020188555050505b505050505050565b6111ae80620007896000396000f3fe608060405234801561001057600080fd5b50600436106100b45760003560e01c80638de034e5116100715780638de034e5146101905780638e7ea5b2146101c05780639d5a0529146101de578063b2c2f2e8146101fc578063c3403ddf1461022c578063ecb617d914610236576100b4565b80632c0a3f89146100b95780633477ee2e146100d5578063697aa8e81461010657806371a65b87146101245780637c466ec5146101545780638da5cb5b14610172575b600080fd5b6100d360048036038101906100ce9190610a52565b610240565b005b6100ef60048036038101906100ea9190610a92565b6104e6565b6040516100fd929190610b5e565b60405180910390f35b61010e6105a2565b60405161011b9190610b8e565b60405180910390f35b61013e60048036038101906101399190610c07565b6105a7565b60405161014b9190610b8e565b60405180910390f35b61015c6105bf565b6040516101699190610b8e565b60405180910390f35b61017a610605565b6040516101879190610c43565b60405180910390f35b6101aa60048036038101906101a59190610c5e565b61062b565b6040516101b79190610b8e565b60405180910390f35b6101c8610650565b6040516101d59190610c9e565b60405180910390f35b6101e66107ca565b6040516101f39190610cdb565b60405180910390f35b61021660048036038101906102119190610a92565b6107dd565b6040516102239190610b8e565b60405180910390f35b610234610853565b005b61023e610900565b005b600360009054906101000a900460ff1615610290576040517f08c379a000000000000000000000000000000000000000000000000000000000815260040161028790610d42565b60405180910390fd5b60008060003373ffffffffffffffffffffffffffffffffffffffff1673ffffffffffffffffffffffffffffffffffffffff1681526020019081526020016000205411610311576040517f08c379a000000000000000000000000000000000000000000000000000000000815260040161030890610dae565b60405180910390fd5b6002805490508210610358576040517f08c379a000000000000000000000000000000000000000000000000000000000815260040161034f90610e1a565b60405180910390fd5b600081826103669190610e69565b9050806000803373ffffffffffffffffffffffffffffffffffffffff1673ffffffffffffffffffffffffffffffffffffffff1681526020019081526020016000205410156103e9576040517f08c379a00000000000000000000000000000000000000000000000000000000081526004016103e090610ef7565b60405180910390fd5b806000803373ffffffffffffffffffffffffffffffffffffffff1673ffffffffffffffffffffffffffffffffffffffff16815260200190815260200160002060008282546104379190610f17565b9250508190555081600160003373ffffffffffffffffffffffffffffffffffffffff1673ffffffffffffffffffffffffffffffffffffffff1681526020019081526020016000206000858152602001908152602001600020600082825461049e9190610f4b565b9250508190555081600284815481106104ba576104b9610f7f565b5b906000526020600020906002020160010160008282546104da9190610f4b565b92505081905550505050565b600281815481106104f657600080fd5b906000526020600020906002020160009150905080600001805461051990610fdd565b80601f016020809104026020016040519081016040528092919081815260200182805461054590610fdd565b80156105925780601f1061056757610100808354040283529160200191610592565b820191906000526020600020905b81548152906001019060200180831161057557829003601f168201915b5050505050908060010154905082565b606481565b60006020528060005260406000206000915090505481565b60008060003373ffffffffffffffffffffffffffffffffffffffff1673ffffffffffffffffffffffffffffffffffffffff16815260200190815260200160002054905090565b600360019054906101000a900473ffffffffffffffffffffffffffffffffffffffff1681565b6001602052816000526040600020602052806000526040600020600091509150505481565b6060600360009054906101000a900460ff166106a1576040517f08c379a00000000000000000000000000000000000000000000000000000000081526004016106989061105a565b60405180910390fd5b6000805b6002805490508110156107c55781600282815481106106c7576106c6610f7f565b5b90600052602060002090600202016001015411156107b857600281815481106106f3576106f2610f7f565b5b90600052602060002090600202016001015491506002818154811061071b5761071a610f7f565b5b9060005260206000209060020201600001805461073790610fdd565b80601f016020809104026020016040519081016040528092919081815260200182805461076390610fdd565b80156107b05780601f10610785576101008083540402835291602001916107b0565b820191906000526020600020905b81548152906001019060200180831161079357829003601f168201915b505050505092505b80806001019150506106a5565b505090565b600360009054906101000a900460ff1681565b60006002805490508210610826576040517f08c379a000000000000000000000000000000000000000000000000000000000815260040161081d90610e1a565b60405180910390fd5b6002828154811061083a57610839610f7f565b5b9060005260206000209060020201600101549050919050565b600360019054906101000a900473ffffffffffffffffffffffffffffffffffffffff1673ffffffffffffffffffffffffffffffffffffffff163373ffffffffffffffffffffffffffffffffffffffff16146108e3576040517f08c379a00000000000000000000000000000000000000000000000000000000081526004016108da906110ec565b60405180910390fd5b6001600360006101000a81548160ff021916908315150217905550565b600360009054906101000a900460ff1615610950576040517f08c379a000000000000000000000000000000000000000000000000000000000815260040161094790610d42565b60405180910390fd5b60008060003373ffffffffffffffffffffffffffffffffffffffff1673ffffffffffffffffffffffffffffffffffffffff16815260200190815260200160002054146109d1576040517f08c379a00000000000000000000000000000000000000000000000000000000081526004016109c890611158565b60405180910390fd5b60646000803373ffffffffffffffffffffffffffffffffffffffff1673ffffffffffffffffffffffffffffffffffffffff16815260200190815260200160002081905550565b600080fd5b6000819050919050565b610a2f81610a1c565b8114610a3a57600080fd5b50565b600081359050610a4c81610a26565b92915050565b60008060408385031215610a6957610a68610a17565b5b6000610a7785828601610a3d565b9250506020610a8885828601610a3d565b9150509250929050565b600060208284031215610aa857610aa7610a17565b5b6000610ab684828501610a3d565b91505092915050565b600081519050919050565b600082825260208201905092915050565b60005b83811015610af9578082015181840152602081019050610ade565b60008484015250505050565b6000601f19601f8301169050919050565b6000610b2182610abf565b610b2b8185610aca565b9350610b3b818560208601610adb565b610b4481610b05565b840191505092915050565b610b5881610a1c565b82525050565b60006040820190508181036000830152610b788185610b16565b9050610b876020830184610b4f565b9392505050565b6000602082019050610ba36000830184610b4f565b92915050565b600073ffffffffffffffffffffffffffffffffffffffff82169050919050565b6000610bd482610ba9565b9050919050565b610be481610bc9565b8114610bef57600080fd5b50565b600081359050610c0181610bdb565b92915050565b600060208284031215610c1d57610c1c610a17565b5b6000610c2b84828501610bf2565b91505092915050565b610c3d81610bc9565b82525050565b6000602082019050610c586000830184610c34565b92915050565b60008060408385031215610c7557610c74610a17565b5b6000610c8385828601610bf2565b9250506020610c9485828601610a3d565b9150509250929050565b60006020820190508181036000830152610cb88184610b16565b905092915050565b60008115159050919050565b610cd581610cc0565b82525050565b6000602082019050610cf06000830184610ccc565b92915050565b7f566f74696e672068617320656e64656400000000000000000000000000000000600082015250565b6000610d2c601083610aca565b9150610d3782610cf6565b602082019050919050565b60006020820190508181036000830152610d5b81610d1f565b9050919050565b7f596f75206d757374206265207265676973746572656420746f20766f74650000600082015250565b6000610d98601e83610aca565b9150610da382610d62565b602082019050919050565b60006020820190508181036000830152610dc781610d8b565b9050919050565b7f496e76616c69642063616e64696461746520696e646578000000000000000000600082015250565b6000610e04601783610aca565b9150610e0f82610dce565b602082019050919050565b60006020820190508181036000830152610e3381610df7565b9050919050565b7f4e487b7100000000000000000000000000000000000000000000000000000000600052601160045260246000fd5b6000610e7482610a1c565b9150610e7f83610a1c565b9250828202610e8d81610a1c565b91508282048414831517610ea457610ea3610e3a565b5b5092915050565b7f496e73756666696369656e742063726564697473000000000000000000000000600082015250565b6000610ee1601483610aca565b9150610eec82610eab565b602082019050919050565b60006020820190508181036000830152610f1081610ed4565b9050919050565b6000610f2282610a1c565b9150610f2d83610a1c565b9250828203905081811115610f4557610f44610e3a565b5b92915050565b6000610f5682610a1c565b9150610f6183610a1c565b9250828201905080821115610f7957610f78610e3a565b5b92915050565b7f4e487b7100000000000000000000000000000000000000000000000000000000600052603260045260246000fd5b7f4e487b7100000000000000000000000000000000000000000000000000000000600052602260045260246000fd5b60006002820490506001821680610ff557607f821691505b60208210810361100857611007610fae565b5b50919050565b7f566f74696e6720686173206e6f7420656e646564207965740000000000000000600082015250565b6000611044601883610aca565b915061104f8261100e565b602082019050919050565b6000602082019050818103600083015261107381611037565b9050919050565b7f4f6e6c792074686520636f6e7472616374206f776e65722063616e2063616c6c60008201527f20746869732066756e6374696f6e000000000000000000000000000000000000602082015250565b60006110d6602e83610aca565b91506110e18261107a565b604082019050919050565b60006020820190508181036000830152611105816110c9565b9050919050565b7f596f75206861766520616c726561647920726567697374657265642e00000000600082015250565b6000611142601c83610aca565b915061114d8261110c565b602082019050919050565b6000602082019050818103600083015261117181611135565b905091905056fea2646970667358221220caefdae9027b512424c178a1790ee430bba74e7b34001c4053dfbb5f022b653e64736f6c63430008180033",
  "linkReferences": {},
  "deployedLinkReferences": {}
}